{
  "_format": "hh-sol-artifact-1",
  "contractName": "EscrowContract",
  "sourceName": "contracts/EscrowContract.sol",
  "abi": [
    {
      "inputs": [],
      "stateMutability": "nonpayable",
      "type": "constructor"
    },
    {
      "inputs": [
        {
          "internalType": "address",
          "name": "sender",
          "type": "address"
        },
        {
          "internalType": "uint256",
          "name": "tokenId",
          "type": "uint256"
        },
        {
          "internalType": "address",
          "name": "owner",
          "type": "address"
        }
      ],
      "name": "ERC721IncorrectOwner",
      "type": "error"
    },
    {
      "inputs": [
        {
          "internalType": "address",
          "name": "operator",
          "type": "address"
        },
        {
          "internalType": "uint256",
          "name": "tokenId",
          "type": "uint256"
        }
      ],
      "name": "ERC721InsufficientApproval",
      "type": "error"
    },
    {
      "inputs": [
        {
          "internalType": "address",
          "name": "approver",
          "type": "address"
        }
      ],
      "name": "ERC721InvalidApprover",
      "type": "error"
    },
    {
      "inputs": [
        {
          "internalType": "address",
          "name": "operator",
          "type": "address"
        }
      ],
      "name": "ERC721InvalidOperator",
      "type": "error"
    },
    {
      "inputs": [
        {
          "internalType": "address",
          "name": "owner",
          "type": "address"
        }
      ],
      "name": "ERC721InvalidOwner",
      "type": "error"
    },
    {
      "inputs": [
        {
          "internalType": "address",
          "name": "receiver",
          "type": "address"
        }
      ],
      "name": "ERC721InvalidReceiver",
      "type": "error"
    },
    {
      "inputs": [
        {
          "internalType": "address",
          "name": "sender",
          "type": "address"
        }
      ],
      "name": "ERC721InvalidSender",
      "type": "error"
    },
    {
      "inputs": [
        {
          "internalType": "uint256",
          "name": "tokenId",
          "type": "uint256"
        }
      ],
      "name": "ERC721NonexistentToken",
      "type": "error"
    },
    {
      "anonymous": false,
      "inputs": [
        {
          "indexed": true,
          "internalType": "address",
          "name": "owner",
          "type": "address"
        },
        {
          "indexed": true,
          "internalType": "address",
          "name": "approved",
          "type": "address"
        },
        {
          "indexed": true,
          "internalType": "uint256",
          "name": "tokenId",
          "type": "uint256"
        }
      ],
      "name": "Approval",
      "type": "event"
    },
    {
      "anonymous": false,
      "inputs": [
        {
          "indexed": true,
          "internalType": "address",
          "name": "owner",
          "type": "address"
        },
        {
          "indexed": true,
          "internalType": "address",
          "name": "operator",
          "type": "address"
        },
        {
          "indexed": false,
          "internalType": "bool",
          "name": "approved",
          "type": "bool"
        }
      ],
      "name": "ApprovalForAll",
      "type": "event"
    },
    {
      "anonymous": false,
      "inputs": [
        {
          "indexed": false,
          "internalType": "uint256",
          "name": "_fromTokenId",
          "type": "uint256"
        },
        {
          "indexed": false,
          "internalType": "uint256",
          "name": "_toTokenId",
          "type": "uint256"
        }
      ],
      "name": "BatchMetadataUpdate",
      "type": "event"
    },
    {
      "anonymous": false,
      "inputs": [
        {
          "indexed": false,
          "internalType": "string",
          "name": "orderId",
          "type": "string"
        },
        {
          "indexed": true,
          "internalType": "address",
          "name": "seller",
          "type": "address"
        },
        {
          "indexed": false,
          "internalType": "uint256",
          "name": "amount",
          "type": "uint256"
        }
      ],
      "name": "FundsReleasedToSeller",
      "type": "event"
    },
    {
      "anonymous": false,
      "inputs": [
        {
          "indexed": false,
          "internalType": "uint256",
          "name": "_tokenId",
          "type": "uint256"
        }
      ],
      "name": "MetadataUpdate",
      "type": "event"
    },
    {
      "anonymous": false,
      "inputs": [
        {
          "indexed": false,
          "internalType": "string",
          "name": "orderId",
          "type": "string"
        },
        {
          "indexed": true,
          "internalType": "address",
          "name": "seller",
          "type": "address"
        },
        {
          "indexed": true,
          "internalType": "address",
          "name": "customer",
          "type": "address"
        },
        {
          "indexed": false,
          "internalType": "uint256",
          "name": "orderFee",
          "type": "uint256"
        }
      ],
      "name": "NewEscrowCreated",
      "type": "event"
    },
    {
      "anonymous": false,
      "inputs": [
        {
          "indexed": false,
          "internalType": "string",
          "name": "orderId",
          "type": "string"
        },
        {
          "indexed": true,
          "internalType": "address",
          "name": "customer",
          "type": "address"
        }
      ],
      "name": "OrderDeliveryConfirmed",
      "type": "event"
    },
    {
      "anonymous": false,
      "inputs": [
        {
          "indexed": false,
          "internalType": "string",
          "name": "orderId",
          "type": "string"
        },
        {
          "indexed": true,
          "internalType": "address",
          "name": "seller",
          "type": "address"
        },
        {
          "indexed": true,
          "internalType": "address",
          "name": "customer",
          "type": "address"
        },
        {
          "indexed": false,
          "internalType": "uint256",
          "name": "tokenId",
          "type": "uint256"
        }
      ],
      "name": "OrderInDelivery",
      "type": "event"
    },
    {
      "anonymous": false,
      "inputs": [
        {
          "indexed": false,
          "internalType": "string",
          "name": "orderId",
          "type": "string"
        },
        {
          "indexed": true,
          "internalType": "address",
          "name": "customer",
          "type": "address"
        },
        {
          "indexed": false,
          "internalType": "uint256",
          "name": "amount",
          "type": "uint256"
        }
      ],
      "name": "PaymentSuccessed",
      "type": "event"
    },
    {
      "anonymous": false,
      "inputs": [
        {
          "indexed": false,
          "internalType": "string",
          "name": "orderId",
          "type": "string"
        },
        {
          "indexed": true,
          "internalType": "address",
          "name": "canceledBy",
          "type": "address"
        }
      ],
      "name": "TransactionCanceled",
      "type": "event"
    },
    {
      "anonymous": false,
      "inputs": [
        {
          "indexed": true,
          "internalType": "address",
          "name": "from",
          "type": "address"
        },
        {
          "indexed": true,
          "internalType": "address",
          "name": "to",
          "type": "address"
        },
        {
          "indexed": true,
          "internalType": "uint256",
          "name": "tokenId",
          "type": "uint256"
        }
      ],
      "name": "Transfer",
      "type": "event"
    },
    {
      "stateMutability": "payable",
      "type": "fallback"
    },
    {
      "inputs": [
        {
          "internalType": "address",
          "name": "to",
          "type": "address"
        },
        {
          "internalType": "uint256",
          "name": "tokenId",
          "type": "uint256"
        }
      ],
      "name": "approve",
      "outputs": [],
      "stateMutability": "nonpayable",
      "type": "function"
    },
    {
      "inputs": [
        {
          "internalType": "address",
          "name": "owner",
          "type": "address"
        }
      ],
      "name": "balanceOf",
      "outputs": [
        {
          "internalType": "uint256",
          "name": "",
          "type": "uint256"
        }
      ],
      "stateMutability": "view",
      "type": "function"
    },
    {
      "inputs": [
        {
          "internalType": "string",
          "name": "orderId",
          "type": "string"
        }
      ],
      "name": "cancelTransaction",
      "outputs": [],
      "stateMutability": "nonpayable",
      "type": "function"
    },
    {
      "inputs": [
        {
          "internalType": "string",
          "name": "orderId",
          "type": "string"
        }
      ],
      "name": "confirmOrderDelivered",
      "outputs": [],
      "stateMutability": "nonpayable",
      "type": "function"
    },
    {
      "inputs": [
        {
          "internalType": "string",
          "name": "orderId",
          "type": "string"
        },
        {
          "internalType": "address",
          "name": "seller",
          "type": "address"
        },
        {
          "internalType": "uint256",
          "name": "orderFee",
          "type": "uint256"
        },
        {
          "internalType": "uint256",
          "name": "paymentDeadline",
          "type": "uint256"
        }
      ],
      "name": "createEscrow",
      "outputs": [],
      "stateMutability": "nonpayable",
      "type": "function"
    },
    {
      "inputs": [
        {
          "internalType": "string",
          "name": "orderId",
          "type": "string"
        },
        {
          "internalType": "uint256",
          "name": "tokenId",
          "type": "uint256"
        },
        {
          "internalType": "string",
          "name": "uri",
          "type": "string"
        }
      ],
      "name": "deliverOrder",
      "outputs": [],
      "stateMutability": "nonpayable",
      "type": "function"
    },
    {
      "inputs": [
        {
          "internalType": "uint256",
          "name": "tokenId",
          "type": "uint256"
        }
      ],
      "name": "getApproved",
      "outputs": [
        {
          "internalType": "address",
          "name": "",
          "type": "address"
        }
      ],
      "stateMutability": "view",
      "type": "function"
    },
    {
      "inputs": [
        {
          "internalType": "string",
          "name": "orderId",
          "type": "string"
        }
      ],
      "name": "getEscrow",
      "outputs": [
        {
          "components": [
            {
              "internalType": "address",
              "name": "customer",
              "type": "address"
            },
            {
              "internalType": "address",
              "name": "seller",
              "type": "address"
            },
            {
              "internalType": "address",
              "name": "canceledBy",
              "type": "address"
            },
            {
              "internalType": "uint256",
              "name": "orderFee",
              "type": "uint256"
            },
            {
              "internalType": "uint256",
              "name": "paymentDeadline",
              "type": "uint256"
            },
            {
              "internalType": "enum EscrowContract.OrderStatus",
              "name": "status",
              "type": "uint8"
            },
            {
              "internalType": "bool",
              "name": "fundsDeposited",
              "type": "bool"
            }
          ],
          "internalType": "struct EscrowContract.Escrow",
          "name": "",
          "type": "tuple"
        }
      ],
      "stateMutability": "view",
      "type": "function"
    },
    {
      "inputs": [
        {
          "internalType": "address",
          "name": "owner",
          "type": "address"
        },
        {
          "internalType": "address",
          "name": "operator",
          "type": "address"
        }
      ],
      "name": "isApprovedForAll",
      "outputs": [
        {
          "internalType": "bool",
          "name": "",
          "type": "bool"
        }
      ],
      "stateMutability": "view",
      "type": "function"
    },
    {
      "inputs": [],
      "name": "name",
      "outputs": [
        {
          "internalType": "string",
          "name": "",
          "type": "string"
        }
      ],
      "stateMutability": "view",
      "type": "function"
    },
    {
      "inputs": [
        {
          "internalType": "uint256",
          "name": "tokenId",
          "type": "uint256"
        }
      ],
      "name": "ownerOf",
      "outputs": [
        {
          "internalType": "address",
          "name": "",
          "type": "address"
        }
      ],
      "stateMutability": "view",
      "type": "function"
    },
    {
      "inputs": [
        {
          "internalType": "string",
          "name": "orderId",
          "type": "string"
        }
      ],
      "name": "payEscrow",
      "outputs": [],
      "stateMutability": "payable",
      "type": "function"
    },
    {
      "inputs": [
        {
          "internalType": "string",
          "name": "orderId",
          "type": "string"
        }
      ],
      "name": "releaseToSeller",
      "outputs": [],
      "stateMutability": "nonpayable",
      "type": "function"
    },
    {
      "inputs": [
        {
          "internalType": "address",
          "name": "from",
          "type": "address"
        },
        {
          "internalType": "address",
          "name": "to",
          "type": "address"
        },
        {
          "internalType": "uint256",
          "name": "tokenId",
          "type": "uint256"
        }
      ],
      "name": "safeTransferFrom",
      "outputs": [],
      "stateMutability": "nonpayable",
      "type": "function"
    },
    {
      "inputs": [
        {
          "internalType": "address",
          "name": "from",
          "type": "address"
        },
        {
          "internalType": "address",
          "name": "to",
          "type": "address"
        },
        {
          "internalType": "uint256",
          "name": "tokenId",
          "type": "uint256"
        },
        {
          "internalType": "bytes",
          "name": "data",
          "type": "bytes"
        }
      ],
      "name": "safeTransferFrom",
      "outputs": [],
      "stateMutability": "nonpayable",
      "type": "function"
    },
    {
      "inputs": [
        {
          "internalType": "address",
          "name": "operator",
          "type": "address"
        },
        {
          "internalType": "bool",
          "name": "approved",
          "type": "bool"
        }
      ],
      "name": "setApprovalForAll",
      "outputs": [],
      "stateMutability": "nonpayable",
      "type": "function"
    },
    {
      "inputs": [
        {
          "internalType": "bytes4",
          "name": "interfaceId",
          "type": "bytes4"
        }
      ],
      "name": "supportsInterface",
      "outputs": [
        {
          "internalType": "bool",
          "name": "",
          "type": "bool"
        }
      ],
      "stateMutability": "view",
      "type": "function"
    },
    {
      "inputs": [],
      "name": "symbol",
      "outputs": [
        {
          "internalType": "string",
          "name": "",
          "type": "string"
        }
      ],
      "stateMutability": "view",
      "type": "function"
    },
    {
      "inputs": [
        {
          "internalType": "uint256",
          "name": "tokenId",
          "type": "uint256"
        }
      ],
      "name": "tokenURI",
      "outputs": [
        {
          "internalType": "string",
          "name": "",
          "type": "string"
        }
      ],
      "stateMutability": "view",
      "type": "function"
    },
    {
      "inputs": [
        {
          "internalType": "address",
          "name": "from",
          "type": "address"
        },
        {
          "internalType": "address",
          "name": "to",
          "type": "address"
        },
        {
          "internalType": "uint256",
          "name": "tokenId",
          "type": "uint256"
        }
      ],
      "name": "transferFrom",
      "outputs": [],
      "stateMutability": "nonpayable",
      "type": "function"
    },
    {
      "stateMutability": "payable",
      "type": "receive"
    }
  ],
  "bytecode": "0x608060405234801561001057600080fd5b506040518060400160405280600e81526020017f457363726f77436f6e74726163740000000000000000000000000000000000008152506040518060400160405280600381526020017f4553430000000000000000000000000000000000000000000000000000000000815250816000908161008c91906102f4565b50806001908161009c91906102f4565b5050506103c6565b600081519050919050565b7f4e487b7100000000000000000000000000000000000000000000000000000000600052604160045260246000fd5b7f4e487b7100000000000000000000000000000000000000000000000000000000600052602260045260246000fd5b6000600282049050600182168061012557607f821691505b602082108103610138576101376100de565b5b50919050565b60008190508160005260206000209050919050565b60006020601f8301049050919050565b600082821b905092915050565b6000600883026101a07fffffffffffffffffffffffffffffffffffffffffffffffffffffffffffffffff82610163565b6101aa8683610163565b95508019841693508086168417925050509392505050565b6000819050919050565b6000819050919050565b60006101f16101ec6101e7846101c2565b6101cc565b6101c2565b9050919050565b6000819050919050565b61020b836101d6565b61021f610217826101f8565b848454610170565b825550505050565b600090565b610234610227565b61023f818484610202565b505050565b5b818110156102635761025860008261022c565b600181019050610245565b5050565b601f8211156102a8576102798161013e565b61028284610153565b81016020851015610291578190505b6102a561029d85610153565b830182610244565b50505b505050565b600082821c905092915050565b60006102cb600019846008026102ad565b1980831691505092915050565b60006102e483836102ba565b9150826002028217905092915050565b6102fd826100a4565b67ffffffffffffffff811115610316576103156100af565b5b610320825461010d565b61032b828285610267565b600060209050601f83116001811461035e576000841561034c578287015190505b61035685826102d8565b8655506103be565b601f19841661036c8661013e565b60005b828110156103945784890151825560018201915060208501945060208101905061036f565b868310156103b157848901516103ad601f8916826102ba565b8355505b6001600288020188555050505b505050505050565b614586806103d56000396000f3fe6080604052600436106101235760003560e01c8063705e3753116100a0578063a22cb46511610064578063a22cb465146103e8578063b88d4fde14610411578063c87b56dd1461043a578063d6aa54df14610477578063e985e9c5146104a057610124565b8063705e3753146102f157806370a082311461031a5780638fc35b9a1461035757806395d89b4114610380578063969631d5146103ab57610124565b806323b872dd116100e757806323b872dd1461021d5780632f2ffd881461024657806342842e0e1461026f5780634b49ee14146102985780636352211e146102b457610124565b806301ffc9a71461012657806302a03a231461016357806306fdde031461018c578063081812fc146101b7578063095ea7b3146101f457610124565b5b005b34801561013257600080fd5b5061014d60048036038101906101489190612dfa565b6104dd565b60405161015a9190612e42565b60405180910390f35b34801561016f57600080fd5b5061018a60048036038101906101859190613037565b61053e565b005b34801561019857600080fd5b506101a1610791565b6040516101ae9190613139565b60405180910390f35b3480156101c357600080fd5b506101de60048036038101906101d9919061315b565b610823565b6040516101eb9190613197565b60405180910390f35b34801561020057600080fd5b5061021b600480360381019061021691906131b2565b61083f565b005b34801561022957600080fd5b50610244600480360381019061023f91906131f2565b610855565b005b34801561025257600080fd5b5061026d60048036038101906102689190613245565b610957565b005b34801561027b57600080fd5b50610296600480360381019061029191906131f2565b610e3b565b005b6102b260048036038101906102ad9190613245565b610e5b565b005b3480156102c057600080fd5b506102db60048036038101906102d6919061315b565b6110f9565b6040516102e89190613197565b60405180910390f35b3480156102fd57600080fd5b506103186004803603810190610313919061328e565b61110b565b005b34801561032657600080fd5b50610341600480360381019061033c9190613319565b61139b565b60405161034e9190613355565b60405180910390f35b34801561036357600080fd5b5061037e60048036038101906103799190613245565b611455565b005b34801561038c57600080fd5b50610395611624565b6040516103a29190613139565b60405180910390f35b3480156103b757600080fd5b506103d260048036038101906103cd9190613245565b6116b6565b6040516103df91906134a2565b60405180910390f35b3480156103f457600080fd5b5061040f600480360381019061040a91906134e9565b61185a565b005b34801561041d57600080fd5b50610438600480360381019061043391906135ca565b611870565b005b34801561044657600080fd5b50610461600480360381019061045c919061315b565b611895565b60405161046e9190613139565b60405180910390f35b34801561048357600080fd5b5061049e60048036038101906104999190613245565b6119a8565b005b3480156104ac57600080fd5b506104c760048036038101906104c2919061364d565b611d43565b6040516104d49190612e42565b60405180910390f35b6000634906490660e01b7bffffffffffffffffffffffffffffffffffffffffffffffffffffffff1916827bffffffffffffffffffffffffffffffffffffffffffffffffffffffff19161480610537575061053682611dd7565b5b9050919050565b6040518060e001604052803373ffffffffffffffffffffffffffffffffffffffff1681526020018473ffffffffffffffffffffffffffffffffffffffff168152602001600073ffffffffffffffffffffffffffffffffffffffff168152602001838152602001828152602001600060068111156105be576105bd61338e565b5b8152602001600015158152506007856040516105da91906136c9565b908152602001604051809103902060008201518160000160006101000a81548173ffffffffffffffffffffffffffffffffffffffff021916908373ffffffffffffffffffffffffffffffffffffffff16021790555060208201518160010160006101000a81548173ffffffffffffffffffffffffffffffffffffffff021916908373ffffffffffffffffffffffffffffffffffffffff16021790555060408201518160020160006101000a81548173ffffffffffffffffffffffffffffffffffffffff021916908373ffffffffffffffffffffffffffffffffffffffff160217905550606082015181600301556080820151816004015560a08201518160050160006101000a81548160ff021916908360068111156106fc576106fb61338e565b5b021790555060c08201518160050160016101000a81548160ff0219169083151502179055509050503373ffffffffffffffffffffffffffffffffffffffff168373ffffffffffffffffffffffffffffffffffffffff167f47282a8bee695eb62454eed206911e002fc27acc74b73b671a13f1db5ca5fbcd86856040516107839291906136e0565b60405180910390a350505050565b6060600080546107a09061373f565b80601f01602080910402602001604051908101604052809291908181526020018280546107cc9061373f565b80156108195780601f106107ee57610100808354040283529160200191610819565b820191906000526020600020905b8154815290600101906020018083116107fc57829003601f168201915b5050505050905090565b600061082e82611eb9565b5061083882611f41565b9050919050565b610851828261084c611f7e565b611f86565b5050565b600073ffffffffffffffffffffffffffffffffffffffff168273ffffffffffffffffffffffffffffffffffffffff16036108c75760006040517f64a0ae920000000000000000000000000000000000000000000000000000000081526004016108be9190613197565b60405180910390fd5b60006108db83836108d6611f7e565b611f98565b90508373ffffffffffffffffffffffffffffffffffffffff168173ffffffffffffffffffffffffffffffffffffffff1614610951578382826040517f64283d7b00000000000000000000000000000000000000000000000000000000815260040161094893929190613770565b60405180910390fd5b50505050565b600060078260405161096991906136c9565b908152602001604051809103902090508060000160009054906101000a900473ffffffffffffffffffffffffffffffffffffffff1673ffffffffffffffffffffffffffffffffffffffff163373ffffffffffffffffffffffffffffffffffffffff16148015610a0d5750600060068111156109e7576109e661338e565b5b8160050160009054906101000a900460ff166006811115610a0b57610a0a61338e565b5b145b15610ad557338160020160006101000a81548173ffffffffffffffffffffffffffffffffffffffff021916908373ffffffffffffffffffffffffffffffffffffffff16021790555060058160050160006101000a81548160ff02191690836006811115610a7d57610a7c61338e565b5b02179055503373ffffffffffffffffffffffffffffffffffffffff167f7cf6bdab97d0b6a25b3e60dd71e13535d4f93ead81cbc23cedb4e14926ef9b5683604051610ac89190613139565b60405180910390a2610e37565b8060010160009054906101000a900473ffffffffffffffffffffffffffffffffffffffff1673ffffffffffffffffffffffffffffffffffffffff163373ffffffffffffffffffffffffffffffffffffffff16148015610b69575060016006811115610b4357610b4261338e565b5b8160050160009054906101000a900460ff166006811115610b6757610b6661338e565b5b145b15610dfb57338160020160006101000a81548173ffffffffffffffffffffffffffffffffffffffff021916908373ffffffffffffffffffffffffffffffffffffffff1602179055508060050160019054906101000a900460ff16610c02576040517f08c379a0000000000000000000000000000000000000000000000000000000008152600401610bf9906137f3565b60405180910390fd5b6000600883604051610c1491906136c9565b908152602001604051809103902054905060008111610c68576040517f08c379a0000000000000000000000000000000000000000000000000000000008152600401610c5f90613885565b60405180910390fd5b6000600884604051610c7a91906136c9565b90815260200160405180910390208190555060008260050160016101000a81548160ff02191690831515021790555060008260000160009054906101000a900473ffffffffffffffffffffffffffffffffffffffff1673ffffffffffffffffffffffffffffffffffffffff1682604051610cf3906138d6565b60006040518083038185875af1925050503d8060008114610d30576040519150601f19603f3d011682016040523d82523d6000602084013e610d35565b606091505b5050905080610d79576040517f08c379a0000000000000000000000000000000000000000000000000000000008152600401610d7090613937565b60405180910390fd5b60058360050160006101000a81548160ff02191690836006811115610da157610da061338e565b5b02179055503373ffffffffffffffffffffffffffffffffffffffff167f7cf6bdab97d0b6a25b3e60dd71e13535d4f93ead81cbc23cedb4e14926ef9b5685604051610dec9190613139565b60405180910390a25050610e36565b6040517f08c379a0000000000000000000000000000000000000000000000000000000008152600401610e2d906139ef565b60405180910390fd5b5b5050565b610e5683838360405180602001604052806000815250611870565b505050565b6000600782604051610e6d91906136c9565b908152602001604051809103902090508060000160009054906101000a900473ffffffffffffffffffffffffffffffffffffffff1673ffffffffffffffffffffffffffffffffffffffff163373ffffffffffffffffffffffffffffffffffffffff1614610f0f576040517f08c379a0000000000000000000000000000000000000000000000000000000008152600401610f0690613a81565b60405180910390fd5b60006006811115610f2357610f2261338e565b5b8160050160009054906101000a900460ff166006811115610f4757610f4661338e565b5b14610f87576040517f08c379a0000000000000000000000000000000000000000000000000000000008152600401610f7e90613aed565b60405180910390fd5b34816003015414610fcd576040517f08c379a0000000000000000000000000000000000000000000000000000000008152600401610fc490613b7f565b60405180910390fd5b8060040154421115611014576040517f08c379a000000000000000000000000000000000000000000000000000000000815260040161100b90613beb565b60405180910390fd5b3460088360405161102591906136c9565b90815260200160405180910390208190555060018160050160016101000a81548160ff02191690831515021790555060018160050160006101000a81548160ff0219169083600681111561107c5761107b61338e565b5b02179055508060000160009054906101000a900473ffffffffffffffffffffffffffffffffffffffff1673ffffffffffffffffffffffffffffffffffffffff167fe02b7a4a5e5502c69f888339648b891120cca6af453567f02a7a86d78c728b2f83346040516110ed9291906136e0565b60405180910390a25050565b600061110482611eb9565b9050919050565b600060078460405161111d91906136c9565b908152602001604051809103902090508060010160009054906101000a900473ffffffffffffffffffffffffffffffffffffffff1673ffffffffffffffffffffffffffffffffffffffff163373ffffffffffffffffffffffffffffffffffffffff16146111bf576040517f08c379a00000000000000000000000000000000000000000000000000000000081526004016111b690613c7d565b60405180910390fd5b600160068111156111d3576111d261338e565b5b8160050160009054906101000a900460ff1660068111156111f7576111f661338e565b5b14611237576040517f08c379a000000000000000000000000000000000000000000000000000000000815260040161122e90613d0f565b60405180910390fd5b8060050160019054906101000a900460ff16611288576040517f08c379a000000000000000000000000000000000000000000000000000000000815260040161127f90613d7b565b60405180910390fd5b60028160050160006101000a81548160ff021916908360068111156112b0576112af61338e565b5b02179055506113006007856040516112c891906136c9565b908152602001604051809103902060000160009054906101000a900473ffffffffffffffffffffffffffffffffffffffff16846121b2565b61130a83836121d0565b8060000160009054906101000a900473ffffffffffffffffffffffffffffffffffffffff1673ffffffffffffffffffffffffffffffffffffffff163373ffffffffffffffffffffffffffffffffffffffff167f027eada72bdd92bb478ef0e9dc31939474074dd56003c9e063c666012743a58f868660405161138d9291906136e0565b60405180910390a350505050565b60008073ffffffffffffffffffffffffffffffffffffffff168273ffffffffffffffffffffffffffffffffffffffff160361140e5760006040517f89c62b640000000000000000000000000000000000000000000000000000000081526004016114059190613197565b60405180910390fd5b600360008373ffffffffffffffffffffffffffffffffffffffff1673ffffffffffffffffffffffffffffffffffffffff168152602001908152602001600020549050919050565b600060078260405161146791906136c9565b908152602001604051809103902090508060000160009054906101000a900473ffffffffffffffffffffffffffffffffffffffff1673ffffffffffffffffffffffffffffffffffffffff163373ffffffffffffffffffffffffffffffffffffffff1614611509576040517f08c379a000000000000000000000000000000000000000000000000000000000815260040161150090613e0d565b60405180910390fd5b6002600681111561151d5761151c61338e565b5b8160050160009054906101000a900460ff1660068111156115415761154061338e565b5b14611581576040517f08c379a000000000000000000000000000000000000000000000000000000000815260040161157890613e9f565b60405180910390fd5b60038160050160006101000a81548160ff021916908360068111156115a9576115a861338e565b5b02179055508060000160009054906101000a900473ffffffffffffffffffffffffffffffffffffffff1673ffffffffffffffffffffffffffffffffffffffff167f42c22b2ae0c5eb0672c1e0967373cc8f42f5f94472beb094984655f27edda874836040516116189190613139565b60405180910390a25050565b6060600180546116339061373f565b80601f016020809104026020016040519081016040528092919081815260200182805461165f9061373f565b80156116ac5780601f10611681576101008083540402835291602001916116ac565b820191906000526020600020905b81548152906001019060200180831161168f57829003601f168201915b5050505050905090565b6116be612cfb565b6007826040516116ce91906136c9565b90815260200160405180910390206040518060e00160405290816000820160009054906101000a900473ffffffffffffffffffffffffffffffffffffffff1673ffffffffffffffffffffffffffffffffffffffff1673ffffffffffffffffffffffffffffffffffffffff1681526020016001820160009054906101000a900473ffffffffffffffffffffffffffffffffffffffff1673ffffffffffffffffffffffffffffffffffffffff1673ffffffffffffffffffffffffffffffffffffffff1681526020016002820160009054906101000a900473ffffffffffffffffffffffffffffffffffffffff1673ffffffffffffffffffffffffffffffffffffffff1673ffffffffffffffffffffffffffffffffffffffff16815260200160038201548152602001600482015481526020016005820160009054906101000a900460ff1660068111156118225761182161338e565b5b60068111156118345761183361338e565b5b81526020016005820160019054906101000a900460ff1615151515815250509050919050565b61186c611865611f7e565b838361222c565b5050565b61187b848484610855565b61188f611886611f7e565b8585858561239b565b50505050565b60606118a082611eb9565b5060006006600084815260200190815260200160002080546118c19061373f565b80601f01602080910402602001604051908101604052809291908181526020018280546118ed9061373f565b801561193a5780601f1061190f5761010080835404028352916020019161193a565b820191906000526020600020905b81548152906001019060200180831161191d57829003601f168201915b50505050509050600061194b61254c565b905060008151036119605781925050506119a3565b60008251111561199557808260405160200161197d929190613ebf565b604051602081830303815290604052925050506119a3565b61199e84612563565b925050505b919050565b60006007826040516119ba91906136c9565b908152602001604051809103902090508060000160009054906101000a900473ffffffffffffffffffffffffffffffffffffffff1673ffffffffffffffffffffffffffffffffffffffff163373ffffffffffffffffffffffffffffffffffffffff1614611a5c576040517f08c379a0000000000000000000000000000000000000000000000000000000008152600401611a5390613f55565b60405180910390fd5b60036006811115611a7057611a6f61338e565b5b8160050160009054906101000a900460ff166006811115611a9457611a9361338e565b5b14611ad4576040517f08c379a0000000000000000000000000000000000000000000000000000000008152600401611acb90613fe7565b60405180910390fd5b8060050160019054906101000a900460ff16611b25576040517f08c379a0000000000000000000000000000000000000000000000000000000008152600401611b1c90614079565b60405180910390fd5b6000600883604051611b3791906136c9565b908152602001604051809103902054905060008111611b8b576040517f08c379a0000000000000000000000000000000000000000000000000000000008152600401611b82906140e5565b60405180910390fd5b6000600884604051611b9d91906136c9565b90815260200160405180910390208190555060008260050160016101000a81548160ff02191690831515021790555060048260050160006101000a81548160ff02191690836006811115611bf457611bf361338e565b5b021790555060008260010160009054906101000a900473ffffffffffffffffffffffffffffffffffffffff1673ffffffffffffffffffffffffffffffffffffffff1682604051611c43906138d6565b60006040518083038185875af1925050503d8060008114611c80576040519150601f19603f3d011682016040523d82523d6000602084013e611c85565b606091505b5050905080611cc9576040517f08c379a0000000000000000000000000000000000000000000000000000000008152600401611cc090614177565b60405180910390fd5b8260010160009054906101000a900473ffffffffffffffffffffffffffffffffffffffff1673ffffffffffffffffffffffffffffffffffffffff167fb952be68b6fdb322dd39d779c5f06683f6cd3fb8c97b587e3ea595ec0f7cd5d48584604051611d359291906136e0565b60405180910390a250505050565b6000600560008473ffffffffffffffffffffffffffffffffffffffff1673ffffffffffffffffffffffffffffffffffffffff16815260200190815260200160002060008373ffffffffffffffffffffffffffffffffffffffff1673ffffffffffffffffffffffffffffffffffffffff16815260200190815260200160002060009054906101000a900460ff16905092915050565b60007f80ac58cd000000000000000000000000000000000000000000000000000000007bffffffffffffffffffffffffffffffffffffffffffffffffffffffff1916827bffffffffffffffffffffffffffffffffffffffffffffffffffffffff19161480611ea257507f5b5e139f000000000000000000000000000000000000000000000000000000007bffffffffffffffffffffffffffffffffffffffffffffffffffffffff1916827bffffffffffffffffffffffffffffffffffffffffffffffffffffffff1916145b80611eb25750611eb1826125cc565b5b9050919050565b600080611ec583612636565b9050600073ffffffffffffffffffffffffffffffffffffffff168173ffffffffffffffffffffffffffffffffffffffff1603611f3857826040517f7e273289000000000000000000000000000000000000000000000000000000008152600401611f2f9190613355565b60405180910390fd5b80915050919050565b60006004600083815260200190815260200160002060009054906101000a900473ffffffffffffffffffffffffffffffffffffffff169050919050565b600033905090565b611f938383836001612673565b505050565b600080611fa484612636565b9050600073ffffffffffffffffffffffffffffffffffffffff168373ffffffffffffffffffffffffffffffffffffffff1614611fe657611fe5818486612838565b5b600073ffffffffffffffffffffffffffffffffffffffff168173ffffffffffffffffffffffffffffffffffffffff161461207757612028600085600080612673565b6001600360008373ffffffffffffffffffffffffffffffffffffffff1673ffffffffffffffffffffffffffffffffffffffff168152602001908152602001600020600082825403925050819055505b600073ffffffffffffffffffffffffffffffffffffffff168573ffffffffffffffffffffffffffffffffffffffff16146120fa576001600360008773ffffffffffffffffffffffffffffffffffffffff1673ffffffffffffffffffffffffffffffffffffffff168152602001908152602001600020600082825401925050819055505b846002600086815260200190815260200160002060006101000a81548173ffffffffffffffffffffffffffffffffffffffff021916908373ffffffffffffffffffffffffffffffffffffffff160217905550838573ffffffffffffffffffffffffffffffffffffffff168273ffffffffffffffffffffffffffffffffffffffff167fddf252ad1be2c89b69c2b068fc378daa952ba7f163c4a11628f55a4df523b3ef60405160405180910390a4809150509392505050565b6121cc8282604051806020016040528060008152506128fc565b5050565b806006600084815260200190815260200160002090816121f09190614343565b507ff8e1a15aba9398e019f0b49df1a4fde98ee17ae345cb5f6b5e2c27f5033e8ce7826040516122209190613355565b60405180910390a15050565b600073ffffffffffffffffffffffffffffffffffffffff168273ffffffffffffffffffffffffffffffffffffffff160361229d57816040517f5b08ba180000000000000000000000000000000000000000000000000000000081526004016122949190613197565b60405180910390fd5b80600560008573ffffffffffffffffffffffffffffffffffffffff1673ffffffffffffffffffffffffffffffffffffffff16815260200190815260200160002060008473ffffffffffffffffffffffffffffffffffffffff1673ffffffffffffffffffffffffffffffffffffffff16815260200190815260200160002060006101000a81548160ff0219169083151502179055508173ffffffffffffffffffffffffffffffffffffffff168373ffffffffffffffffffffffffffffffffffffffff167f17307eab39ab6107e8899845ad3d59bd9653f200f220920489ca2b5937696c318360405161238e9190612e42565b60405180910390a3505050565b60008373ffffffffffffffffffffffffffffffffffffffff163b1115612545578273ffffffffffffffffffffffffffffffffffffffff1663150b7a02868685856040518563ffffffff1660e01b81526004016123fa949392919061446a565b6020604051808303816000875af192505050801561243657506040513d601f19601f8201168201806040525081019061243391906144cb565b60015b6124ba573d8060008114612466576040519150601f19603f3d011682016040523d82523d6000602084013e61246b565b606091505b5060008151036124b257836040517f64a0ae920000000000000000000000000000000000000000000000000000000081526004016124a99190613197565b60405180910390fd5b805181602001fd5b63150b7a0260e01b7bffffffffffffffffffffffffffffffffffffffffffffffffffffffff1916817bffffffffffffffffffffffffffffffffffffffffffffffffffffffff19161461254357836040517f64a0ae9200000000000000000000000000000000000000000000000000000000815260040161253a9190613197565b60405180910390fd5b505b5050505050565b606060405180602001604052806000815250905090565b606061256e82611eb9565b50600061257961254c565b9050600081511161259957604051806020016040528060008152506125c4565b806125a384612920565b6040516020016125b4929190613ebf565b6040516020818303038152906040525b915050919050565b60007f01ffc9a7000000000000000000000000000000000000000000000000000000007bffffffffffffffffffffffffffffffffffffffffffffffffffffffff1916827bffffffffffffffffffffffffffffffffffffffffffffffffffffffff1916149050919050565b60006002600083815260200190815260200160002060009054906101000a900473ffffffffffffffffffffffffffffffffffffffff169050919050565b80806126ac5750600073ffffffffffffffffffffffffffffffffffffffff168273ffffffffffffffffffffffffffffffffffffffff1614155b156127e05760006126bc84611eb9565b9050600073ffffffffffffffffffffffffffffffffffffffff168373ffffffffffffffffffffffffffffffffffffffff161415801561272757508273ffffffffffffffffffffffffffffffffffffffff168173ffffffffffffffffffffffffffffffffffffffff1614155b801561273a57506127388184611d43565b155b1561277c57826040517fa9fbf51f0000000000000000000000000000000000000000000000000000000081526004016127739190613197565b60405180910390fd5b81156127de57838573ffffffffffffffffffffffffffffffffffffffff168273ffffffffffffffffffffffffffffffffffffffff167f8c5be1e5ebec7d5bd14f71427d1e84f3dd0314c0f7b2291e5b200ac8c7c3b92560405160405180910390a45b505b836004600085815260200190815260200160002060006101000a81548173ffffffffffffffffffffffffffffffffffffffff021916908373ffffffffffffffffffffffffffffffffffffffff16021790555050505050565b6128438383836129ee565b6128f757600073ffffffffffffffffffffffffffffffffffffffff168373ffffffffffffffffffffffffffffffffffffffff16036128b857806040517f7e2732890000000000000000000000000000000000000000000000000000000081526004016128af9190613355565b60405180910390fd5b81816040517f177e802f0000000000000000000000000000000000000000000000000000000081526004016128ee9291906144f8565b60405180910390fd5b505050565b6129068383612aaf565b61291b612911611f7e565b600085858561239b565b505050565b60606000600161292f84612ba8565b01905060008167ffffffffffffffff81111561294e5761294d612e78565b5b6040519080825280601f01601f1916602001820160405280156129805781602001600182028036833780820191505090505b509050600082602001820190505b6001156129e3578080600190039150507f3031323334353637383961626364656600000000000000000000000000000000600a86061a8153600a85816129d7576129d6614521565b5b0494506000850361298e575b819350505050919050565b60008073ffffffffffffffffffffffffffffffffffffffff168373ffffffffffffffffffffffffffffffffffffffff1614158015612aa657508273ffffffffffffffffffffffffffffffffffffffff168473ffffffffffffffffffffffffffffffffffffffff161480612a675750612a668484611d43565b5b80612aa557508273ffffffffffffffffffffffffffffffffffffffff16612a8d83611f41565b73ffffffffffffffffffffffffffffffffffffffff16145b5b90509392505050565b600073ffffffffffffffffffffffffffffffffffffffff168273ffffffffffffffffffffffffffffffffffffffff1603612b215760006040517f64a0ae92000000000000000000000000000000000000000000000000000000008152600401612b189190613197565b60405180910390fd5b6000612b2f83836000611f98565b9050600073ffffffffffffffffffffffffffffffffffffffff168173ffffffffffffffffffffffffffffffffffffffff1614612ba35760006040517f73c6ac6e000000000000000000000000000000000000000000000000000000008152600401612b9a9190613197565b60405180910390fd5b505050565b600080600090507a184f03e93ff9f4daa797ed6e38ed64bf6a1f0100000000000000008310612c06577a184f03e93ff9f4daa797ed6e38ed64bf6a1f0100000000000000008381612bfc57612bfb614521565b5b0492506040810190505b6d04ee2d6d415b85acef81000000008310612c43576d04ee2d6d415b85acef81000000008381612c3957612c38614521565b5b0492506020810190505b662386f26fc100008310612c7257662386f26fc100008381612c6857612c67614521565b5b0492506010810190505b6305f5e1008310612c9b576305f5e1008381612c9157612c90614521565b5b0492506008810190505b6127108310612cc0576127108381612cb657612cb5614521565b5b0492506004810190505b60648310612ce35760648381612cd957612cd8614521565b5b0492506002810190505b600a8310612cf2576001810190505b80915050919050565b6040518060e00160405280600073ffffffffffffffffffffffffffffffffffffffff168152602001600073ffffffffffffffffffffffffffffffffffffffff168152602001600073ffffffffffffffffffffffffffffffffffffffff168152602001600081526020016000815260200160006006811115612d7f57612d7e61338e565b5b81526020016000151581525090565b6000604051905090565b600080fd5b600080fd5b60007fffffffff0000000000000000000000000000000000000000000000000000000082169050919050565b612dd781612da2565b8114612de257600080fd5b50565b600081359050612df481612dce565b92915050565b600060208284031215612e1057612e0f612d98565b5b6000612e1e84828501612de5565b91505092915050565b60008115159050919050565b612e3c81612e27565b82525050565b6000602082019050612e576000830184612e33565b92915050565b600080fd5b600080fd5b6000601f19601f8301169050919050565b7f4e487b7100000000000000000000000000000000000000000000000000000000600052604160045260246000fd5b612eb082612e67565b810181811067ffffffffffffffff82111715612ecf57612ece612e78565b5b80604052505050565b6000612ee2612d8e565b9050612eee8282612ea7565b919050565b600067ffffffffffffffff821115612f0e57612f0d612e78565b5b612f1782612e67565b9050602081019050919050565b82818337600083830152505050565b6000612f46612f4184612ef3565b612ed8565b905082815260208101848484011115612f6257612f61612e62565b5b612f6d848285612f24565b509392505050565b600082601f830112612f8a57612f89612e5d565b5b8135612f9a848260208601612f33565b91505092915050565b600073ffffffffffffffffffffffffffffffffffffffff82169050919050565b6000612fce82612fa3565b9050919050565b612fde81612fc3565b8114612fe957600080fd5b50565b600081359050612ffb81612fd5565b92915050565b6000819050919050565b61301481613001565b811461301f57600080fd5b50565b6000813590506130318161300b565b92915050565b6000806000806080858703121561305157613050612d98565b5b600085013567ffffffffffffffff81111561306f5761306e612d9d565b5b61307b87828801612f75565b945050602061308c87828801612fec565b935050604061309d87828801613022565b92505060606130ae87828801613022565b91505092959194509250565b600081519050919050565b600082825260208201905092915050565b60005b838110156130f45780820151818401526020810190506130d9565b60008484015250505050565b600061310b826130ba565b61311581856130c5565b93506131258185602086016130d6565b61312e81612e67565b840191505092915050565b600060208201905081810360008301526131538184613100565b905092915050565b60006020828403121561317157613170612d98565b5b600061317f84828501613022565b91505092915050565b61319181612fc3565b82525050565b60006020820190506131ac6000830184613188565b92915050565b600080604083850312156131c9576131c8612d98565b5b60006131d785828601612fec565b92505060206131e885828601613022565b9150509250929050565b60008060006060848603121561320b5761320a612d98565b5b600061321986828701612fec565b935050602061322a86828701612fec565b925050604061323b86828701613022565b9150509250925092565b60006020828403121561325b5761325a612d98565b5b600082013567ffffffffffffffff81111561327957613278612d9d565b5b61328584828501612f75565b91505092915050565b6000806000606084860312156132a7576132a6612d98565b5b600084013567ffffffffffffffff8111156132c5576132c4612d9d565b5b6132d186828701612f75565b93505060206132e286828701613022565b925050604084013567ffffffffffffffff81111561330357613302612d9d565b5b61330f86828701612f75565b9150509250925092565b60006020828403121561332f5761332e612d98565b5b600061333d84828501612fec565b91505092915050565b61334f81613001565b82525050565b600060208201905061336a6000830184613346565b92915050565b61337981612fc3565b82525050565b61338881613001565b82525050565b7f4e487b7100000000000000000000000000000000000000000000000000000000600052602160045260246000fd5b600781106133ce576133cd61338e565b5b50565b60008190506133df826133bd565b919050565b60006133ef826133d1565b9050919050565b6133ff816133e4565b82525050565b61340e81612e27565b82525050565b60e08201600082015161342a6000850182613370565b50602082015161343d6020850182613370565b5060408201516134506040850182613370565b506060820151613463606085018261337f565b506080820151613476608085018261337f565b5060a082015161348960a08501826133f6565b5060c082015161349c60c0850182613405565b50505050565b600060e0820190506134b76000830184613414565b92915050565b6134c681612e27565b81146134d157600080fd5b50565b6000813590506134e3816134bd565b92915050565b60008060408385031215613500576134ff612d98565b5b600061350e85828601612fec565b925050602061351f858286016134d4565b9150509250929050565b600067ffffffffffffffff82111561354457613543612e78565b5b61354d82612e67565b9050602081019050919050565b600061356d61356884613529565b612ed8565b90508281526020810184848401111561358957613588612e62565b5b613594848285612f24565b509392505050565b600082601f8301126135b1576135b0612e5d565b5b81356135c184826020860161355a565b91505092915050565b600080600080608085870312156135e4576135e3612d98565b5b60006135f287828801612fec565b945050602061360387828801612fec565b935050604061361487828801613022565b925050606085013567ffffffffffffffff81111561363557613634612d9d565b5b6136418782880161359c565b91505092959194509250565b6000806040838503121561366457613663612d98565b5b600061367285828601612fec565b925050602061368385828601612fec565b9150509250929050565b600081905092915050565b60006136a3826130ba565b6136ad818561368d565b93506136bd8185602086016130d6565b80840191505092915050565b60006136d58284613698565b915081905092915050565b600060408201905081810360008301526136fa8185613100565b90506137096020830184613346565b9392505050565b7f4e487b7100000000000000000000000000000000000000000000000000000000600052602260045260246000fd5b6000600282049050600182168061375757607f821691505b60208210810361376a57613769613710565b5b50919050565b60006060820190506137856000830186613188565b6137926020830185613346565b61379f6040830184613188565b949350505050565b7f4e6f2066756e6473206465706f736974656420746f20726566756e642e000000600082015250565b60006137dd601d836130c5565b91506137e8826137a7565b602082019050919050565b6000602082019050818103600083015261380c816137d0565b9050919050565b7f416d6f756e7420746f20726566756e64206d757374206265206772656174657260008201527f207468616e20302e000000000000000000000000000000000000000000000000602082015250565b600061386f6028836130c5565b915061387a82613813565b604082019050919050565b6000602082019050818103600083015261389e81613862565b9050919050565b600081905092915050565b50565b60006138c06000836138a5565b91506138cb826138b0565b600082019050919050565b60006138e1826138b3565b9150819050919050565b7f4661696c656420746f20726566756e642e000000000000000000000000000000600082015250565b60006139216011836130c5565b915061392c826138eb565b602082019050919050565b6000602082019050818103600083015261395081613914565b9050919050565b7f43616e63656c6c6174696f6e206e6f7420616c6c6f77656420756e646572206360008201527f757272656e7420636f6e646974696f6e73206f7220627920746869732063616c60208201527f6c65722e00000000000000000000000000000000000000000000000000000000604082015250565b60006139d96044836130c5565b91506139e482613957565b606082019050919050565b60006020820190508181036000830152613a08816139cc565b9050919050565b7f596f7520617265206e6f742074686520617574686f72697a656420637573746f60008201527f6d65722100000000000000000000000000000000000000000000000000000000602082015250565b6000613a6b6024836130c5565b9150613a7682613a0f565b604082019050919050565b60006020820190508181036000830152613a9a81613a5e565b9050919050565b7f596f7520646f6e2774206861766520746f20646f207061796d656e7421000000600082015250565b6000613ad7601d836130c5565b9150613ae282613aa1565b602082019050919050565b60006020820190508181036000830152613b0681613aca565b9050919050565b7f506c6561736520696e736572742074686520726967687420616d6f756e74206f60008201527f66206d6f6e657921000000000000000000000000000000000000000000000000602082015250565b6000613b696028836130c5565b9150613b7482613b0d565b604082019050919050565b60006020820190508181036000830152613b9881613b5c565b9050919050565b7f4f76657264756521000000000000000000000000000000000000000000000000600082015250565b6000613bd56008836130c5565b9150613be082613b9f565b602082019050919050565b60006020820190508181036000830152613c0481613bc8565b9050919050565b7f4f6e6c792073656c6c65722063616e2063616c6c20746869732066756e63746960008201527f6f6e2e0000000000000000000000000000000000000000000000000000000000602082015250565b6000613c676023836130c5565b9150613c7282613c0b565b604082019050919050565b60006020820190508181036000830152613c9681613c5a565b9050919050565b7f596f7572206f72646572206973206e6f7420696e20746865206177616974696e60008201527f672064656c6976657279207374617475732e0000000000000000000000000000602082015250565b6000613cf96032836130c5565b9150613d0482613c9d565b604082019050919050565b60006020820190508181036000830152613d2881613cec565b9050919050565b7f437573746f6d6572206861736e2774206465706f73697465642e000000000000600082015250565b6000613d65601a836130c5565b9150613d7082613d2f565b602082019050919050565b60006020820190508181036000830152613d9481613d58565b9050919050565b7f4f6e6c7920637573746f6d65722063616e206368616e6765207468652073746160008201527f74757320746f2064656c69766572656421000000000000000000000000000000602082015250565b6000613df76031836130c5565b9150613e0282613d9b565b604082019050919050565b60006020820190508181036000830152613e2681613dea565b9050919050565b7f596f7572206f7264657220686173206e6f74206265656e2070726f636573736560008201527f642e000000000000000000000000000000000000000000000000000000000000602082015250565b6000613e896022836130c5565b9150613e9482613e2d565b604082019050919050565b60006020820190508181036000830152613eb881613e7c565b9050919050565b6000613ecb8285613698565b9150613ed78284613698565b91508190509392505050565b7f4f6e6c7920637573746f6d65722063616e2072656c656173652074686520666560008201527f6520746f207468652073656c6c65722100000000000000000000000000000000602082015250565b6000613f3f6030836130c5565b9150613f4a82613ee3565b604082019050919050565b60006020820190508181036000830152613f6e81613f32565b9050919050565b7f596f7520686176656e277420636f6e6669726d656420796f7572206f7264657260008201527f2100000000000000000000000000000000000000000000000000000000000000602082015250565b6000613fd16021836130c5565b9150613fdc82613f75565b604082019050919050565b6000602082019050818103600083015261400081613fc4565b9050919050565b7f4e6f206d6f6e657920746f2072656c6561736520746f207468652073656c6c6560008201527f722e000000000000000000000000000000000000000000000000000000000000602082015250565b60006140636022836130c5565b915061406e82614007565b604082019050919050565b6000602082019050818103600083015261409281614056565b9050919050565b7f4e6f20616d6f756e74206f66206d6f6e657920746f2072656c65617365210000600082015250565b60006140cf601e836130c5565b91506140da82614099565b602082019050919050565b600060208201905081810360008301526140fe816140c2565b9050919050565b7f4661696c656420746f2072656c6561736520746865206d6f6e657920746f207460008201527f68652073656c6c65722100000000000000000000000000000000000000000000602082015250565b6000614161602a836130c5565b915061416c82614105565b604082019050919050565b6000602082019050818103600083015261419081614154565b9050919050565b60008190508160005260206000209050919050565b60006020601f8301049050919050565b600082821b905092915050565b6000600883026141f97fffffffffffffffffffffffffffffffffffffffffffffffffffffffffffffffff826141bc565b61420386836141bc565b95508019841693508086168417925050509392505050565b6000819050919050565b600061424061423b61423684613001565b61421b565b613001565b9050919050565b6000819050919050565b61425a83614225565b61426e61426682614247565b8484546141c9565b825550505050565b600090565b614283614276565b61428e818484614251565b505050565b5b818110156142b2576142a760008261427b565b600181019050614294565b5050565b601f8211156142f7576142c881614197565b6142d1846141ac565b810160208510156142e0578190505b6142f46142ec856141ac565b830182614293565b50505b505050565b600082821c905092915050565b600061431a600019846008026142fc565b1980831691505092915050565b60006143338383614309565b9150826002028217905092915050565b61434c826130ba565b67ffffffffffffffff81111561436557614364612e78565b5b61436f825461373f565b61437a8282856142b6565b600060209050601f8311600181146143ad576000841561439b578287015190505b6143a58582614327565b86555061440d565b601f1984166143bb86614197565b60005b828110156143e3578489015182556001820191506020850194506020810190506143be565b8683101561440057848901516143fc601f891682614309565b8355505b6001600288020188555050505b505050505050565b600081519050919050565b600082825260208201905092915050565b600061443c82614415565b6144468185614420565b93506144568185602086016130d6565b61445f81612e67565b840191505092915050565b600060808201905061447f6000830187613188565b61448c6020830186613188565b6144996040830185613346565b81810360608301526144ab8184614431565b905095945050505050565b6000815190506144c581612dce565b92915050565b6000602082840312156144e1576144e0612d98565b5b60006144ef848285016144b6565b91505092915050565b600060408201905061450d6000830185613188565b61451a6020830184613346565b9392505050565b7f4e487b7100000000000000000000000000000000000000000000000000000000600052601260045260246000fdfea2646970667358221220c6384991458078dc5ee9f95bb4d4bc0b124874a702d3070b006a99b1277e541264736f6c634300081c0033",
  "linkReferences": {},
  "deployedLinkReferences": {}
}